:020000040801F1
:1000000008E20020E50301087D6A0108A15C0108FF
:10001000E7670108252B01084D9901080000000041
:10002000000000000000000000000000250301089F
:100030000D2D0108000000008103010885770108EB
:10004000FF030108FF030108FF030108FF03010884
:10005000FF030108FF030108FF030108FF03010874
:10006000FF030108FF030108FF030108092C010831
:10007000152C0108FF030108212C0108FF030108CA
:100080002D2C0108392C0108FF030108FF0301088A
:10009000FF030108FF030108FF030108FF03010834
:1000A000FF030108FF030108FF030108FF03010824
:1000B000FF030108FF030108FF030108FF03010814
:1000C000FF030108FF030108FF030108FF03010804
:1000D000FF030108FF030108A97D0108BD7D010898
:1000E000FF030108FF030108FF030108FF030108E4
:1000F000FF030108FF030108FF030108452C010865
:10010000FF030108FF030108FF030108FF030108C3
:10011000FF03010839790108FF0301086578010828
:10012000FF030108512C0108FF030108FF03010828
:10013000FF0301080000000000000000FF030108A9
:10014000FF030108FF030108FF030108816A01089A
:10015000FF0301085D2C0108FF030108D17D0108A0
:10016000FF030108FF030108FF030108FF03010863
:10017000FF030108FF030108000000000000000069
:10018000955C0108FF03010800F002F800F0BAF8DE
:100190000AA090E8000C82448344AAF10107DA45E2
:1001A00001D100F0AFF8AFF2090EBAE80F0013F07A
:1001B000010F18BFFB1A43F0010318472C2F010051
:1001C0004C2F01000A444FF0000C10F8013B13F0D3
:1001D000070408BF10F8014B1D1108BF10F8015BA0
:1001E000641E05D010F8016B641E01F8016BF9D193
:1001F00013F0080F1EBF10F8014BAD1C0C1B09D1EA
:100200006D1E58BF01F801CBFAD505E014F8016B5B
:1002100001F8016B6D1EF9D59142D6D370470000ED
:100220000023002400250026103A28BF78C1FBD8FF
:10023000520728BF30C148BF0B6070476E2900F0DD
:100240005A86702900F0DB82662911F048846529FE
:1002500011F04584672911F04284612911F041842D
:1002600003681B0A28BF41F08001692900F04C8215
:10027000642900F04982752900F046826F2900F058
:100280005A87782900F0A782E92900F0F586E42949
:1002900000F0F286F52900F0EF86EF2900F057878D
:1002A000F82900F0A6820368DB0928BF41F080012D
:1002B000632900F06486732900F06986E32901F060
:1002C000E985F32901F0EE85002070471FB511F094
:1002D00001FC9DE8030000F06DFD01F027FF040024
:1002E0000020002111F0E0FB401C60600020002194
:1002F00011F0C4FBE06001F015F91FBD10B501F06D
:100300007AF910BD01F0E4FE1146FFF7DFFF0DF0B2
:1003100057FE01F0C5FF03B4FFF7F0FF03BC09F07F
:1003200074FD00002C4B19680868B0E8F04F80F3AA
:100330000988BFF36F8F4FF0000080F3118870477A
:100340000000000008480068006880F308884FF04B
:10035000000080F3148862B661B6BFF34F8FBFF31D
:100360006F8F00DF00BF00BF08ED00E0DFF80C007A
:10037000016841F470010160704700BF88ED00E042
:10038000EFF30980BFF36F8F134B1A681EF0100F45
:1003900008BF20ED108A20E9F04F106009B44FF03B
:1003A000500080F31188BFF34F8FBFF36F8F10F0B1
:1003B0003DFD4FF0000080F3118809BC1968086802
:1003C000B0E8F04F1EF0100F08BFB0EC108A80F3B9
:1003D0000988BFF36F8F70478C000020EFF3058012
:1003E000704700000948804709480047FEE7FEE7DC
:1003F000FEE7FEE7FEE7FEE7FEE7FEE7FEE7FEE7D5
:1004000004480549054A064B704700004978010831
:100410008901010808D2002008E2002008DA002043
:1004200008DA0020704770B5064600F0A7FC0568A2
:1004300006F10B0020F00704B4429CBF002070BD01
:100440002B466A68BAB11068A04210D304F10801C3
:1004500088423CBF5068586007D35168101941600A
:100460001168091B016058601460101D70BD1346AF
:100470005268002AE7D12146284600F087FC002870
:10048000DED170BD70B50446051F00F077FC006832
:10049000002C14BF446870BD002C18BFAC423CBF98
:1004A00020466468F8D301680A18AA4218BF45605C
:1004B00003D12A6805461144016028684119A14208
:1004C0001CBF6C6070BD6168696021680844286069
:1004D00070BD53EA020C00F069802DE9F04B4FF03B
:1004E0000006002B1FBFB3FA83F503FA05F424FAC4
:1004F00005F65E4012BF1643B2FA82F502FA05F421
:10050000C5F120051EBF22FA05FC44EA0C04203583
:1005100056EA044C4FEA144418BF641C4FF000081C
:100520004FF00009904271EB030C39D3002919BF39
:10053000B1FA81F701FA07F6B0FA80F700FA07F688
:10054000C7F120071EBF20FA07FC46EA0C06203739
:10055000B6FBF4FCA7EB0507103F07F01F0BCBF130
:1005600020060CFA0BFB2CFA06F644BFB346002615
:10057000202FA4BF5E464FF0000B5BEA060C08BFBD
:100580004FF0010B19EB0B09ABFB027C48EB0608A3
:10059000C01B06FB02CC0BFB03CC71EB0C01C1E7CB
:1005A0000B46024641464846BDE8F08B13B54FF076
:1005B00000004FF00001AFF30080BDE81C40704721
:1005C0001CB50C46064B7B4469460090204600F063
:1005D000ACFC04460020694600F0BAFC20461CBD75
:1005E000870900007CB51D4616460C00009001D01E
:1005F0002044401E074B7B442A4669460190304602
:1006000000F093FC05461CB10020694600F0A0FCF8
:1006100028467CBD610900000FB4044910B503AA47
:10062000029800F0B9FC10BC5DF814FB00D100206A
:100630000FB47CB50C0009AA009001D02044401EE4
:10064000084B7B4469460190089800F06EFC054613
:100650001CB10020694600F07BFC28467CBC5DF89C
:1006600014FB00001509000070B504468569006898
:10067000C10601D5302600E02026C00707D070BD96
:10068000D4E9012130469047206A401C20626D1E4B
:10069000F6D570BD70B5044685690078C00707D1EE
:1006A00070BDD4E9012120209047206A401C2062BF
:1006B0006D1EF6D570BD70B50C460546012A05D0F5
:1006C0002878800600D5EA69002302E0012305E0CE
:1006D0005B1C934202D2E05C0028F9D1A869E618BD
:1006E000C01AA861286A184428622846FFF7BCFF90
:1006F00004E0D5E9012114F8010B9047B442F8D386
:100700002846FFF7C7FF70BD2DE9F04106460024DB
:1007100010687529314616A510D000F081FB00281D
:1007200002DA404213A507E031688A0701D512A515
:1007300002E0490704D511A5012401E000F079FB8E
:1007400000210A2206F1240709E0B0FBF2FCB0FB0D
:10075000F2F302FB1C00303078541846491C002884
:10076000F3D123462A463046BDE8F04100F06ABB8B
:10077000000000002D0000002B0000002000000001
:10078000F0B40D460188090502D5214C7C4402E0F5
:100790001F4C7C440E34002100F1240608E002F0D6
:1007A0000F071209E75D42EA03721B097754491CDF
:1007B00052EA0307F3D102780023120704D5702D03
:1007C00006D009B1022311342246F0BC00F03ABB36
:1007D00001231034F8E770B504460D462146106831
:1007E00000F027FB024629462046BDE87040002362
:1007F000C6E7D21D22F00703D3E90023C0E7036850
:10080000126843F0200303600823C3610023B7E7A5
:10081000092601002DE9F05F894604464FF0000AE1
:10082000DFF874B1FB44C0F820A02046E168884797
:10083000002874D0252806D0D4E901219047206AE9
:10084000401C2062F1E700265F462046E1688847A9
:100850002028054607DB312D05D2781910F8200C29
:1008600008B10643F1E7B00701D526F00406C4F845
:100870001CA00027C4F818A02A2D09D0284609F08A
:10088000BBFA38B304EB8708303DC8F8185019E0BC
:1008900059F8041B204604EB87029161E168884700
:1008A000012F054618D1E069002820DA26F020063D
:1008B0001DE0D8F8180000EB800005EB4000303850
:1008C000C8F818002046E1688847054609F094FA00
:1008D0000028EED1012F0AD02E2D08D12046E16844
:1008E00088477F1C0546022F46F02006C4DBA0691E
:1008F000002803DA404246F00106A061F00701D06B
:1009000026F010066C2D0BD0682D09D04C2D39D057
:100910006A2D35D0742D35D07A2D33D016E038E0DD
:10092000E1682F4620468847B842054609D16C2F1A
:1009300026D04FF48060E16806432046884705468C
:1009400004E06C2F1AD04FF4807006430DB3A5F16C
:100950004100192802D8203546F400664A46294647
:10096000204626604E46FFF769FC80B101280BD077
:10097000F61D26F0070000F1080956E74020E4E7DD
:100980008020D8E70020D6E706F104094DE7284685
:1009900052E7206ABDE8F09F9925010070B5044632
:1009A000C068810713D0800601D5A56A04E0A1695B
:1009B000606808442169451A204600F06FFD002256
:1009C00006462946204600F0B9FC304670BD00209E
:1009D00070BD70B510B1BDE87040DFE70025074C71
:1009E0006E1E07E02046FFF7D9FF00B13546206DA7
:1009F00020F00104002CF5D1284670BDACD00020B9
:100A000030B505460B462A4613F8014B12F8010B88
:100A100008B1A042F8D01CB1002802D06D1CF1E74B
:100A2000284630BD40EA010310B59B070FD1042AC8
:100A30000DD310C808C9121F9C42F8D020BA19BAA9
:100A4000884201D9012010BD4FF0FF3010BD1AB10E
:100A5000D30703D0521C07E0002010BD10F8013B63
:100A600011F8014B1B1B07D110F8013B11F8014B8A
:100A70001B1B01D1921EF1D1184610BD10B5431CAD
:100A800002E010F8011B71B18107FAD14FF0013279
:100A900002C88C1A8C4314EAC211F9D0C01A0A0693
:100AA00003D0C01E10BDC01A10BD0A0401D0801EA4
:100AB00010BD0902FCD0401E10BD40EA010370B514
:100AC0009B072ED14FF00136042A2AD308C810C93B
:100AD0009D1B9D43121F15EAC61517D0D8B2E1B26F
:100AE000401A50EA056110D198B2A1B2401A50EAFA
:100AF00005410AD123F07F4024F07F41401A50EA9B
:100B0000052102D1180EA0EB146070BDA342DBD00A
:100B100018BA21BA884201D9012070BD4FF0FF30C8
:100B200070BD0AB9002070BD10F8013B11F8014BEF
:100B300063B1A3420AD1521E08D010F8013B11F84C
:100B4000014B1BB1A34201D1521EEDD1181B70BD48
:100B5000032A40F2308010F0030C00F0158011F8E9
:100B6000013BBCF1020F624498BF11F801CB00F8C1
:100B7000013B38BF11F8013BA2F1040298BF00F815
:100B800001CB38BF00F8013B11F0030300F02580D2
:100B9000083AC0F0088051F8043B083A51F804CBF9
:100BA000A0E80810F5E7121D5CBF51F8043B40F8BF
:100BB000043BAFF30080D20724BF11F8013B11F8CA
:100BC00001CB48BF11F8012B24BF00F8013B00F80E
:100BD00001CB48BF00F8012B704710B5203AC0F098
:100BE0000B80B1E81850203AA0E81850B1E818502E
:100BF000A0E81850BFF4F5AF5FEA027C24BFB1E86B
:100C00001850A0E8185044BF18C918C0BDE81040DB
:100C10005FEA827C24BF51F8043B40F8043B08BFE4
:100C20007047D20728BF31F8023B48BF11F8012BAB
:100C300028BF20F8023B48BF00F8012B704702F0A4
:100C4000FF0343EA032242EA024200F009BD4FF0EB
:100C5000000200B5134694469646203922BFA0E80C
:100C60000C50A0E80C50B1F12001BFF4F7AF090718
:100C700028BFA0E80C5048BF0CC05DF804EB890009
:100C800028BF40F8042B08BF704748BF20F8022B4C
:100C900011F0804F18BF00F8012B704710B50446C3
:100CA00010F0030F08BF11F0030F40F015804FF054
:100CB000013E121FC0F20E8051F8043BA3EB0E0C54
:100CC0002CEA030C1CEACE1C08BF40F8043BF0D011
:100CD000A1F1040102F10402521E08DB11F8013BEC
:100CE000002B00F8013BF7D1114600F0B7FC20467D
:100CF00010BD00004FF0013C50F8042B51F8043BAC
:100D00009A4221D1A2EB0C03934313EACC1317D1DF
:100D100050F8042B51F8043B9A4215D1A2EB0C0376
:100D2000934313EACC130BD150F8042B51F8043B36
:100D30009A4209D1A2EB0C03934313EACC13DBD004
:100D40004FF00000704700BFD01A01BAB1FA81F12C
:100D500001F0180122FA01F0CB40C1F12001DBB211
:100D6000C0B2C01A2CFA01F3D11A914311EAC3118F
:100D7000E6D170477047704770477047004870472A
:100D8000B0D10020704770477047704738B50446AF
:100D90000A4600206946AFF30080002808BF38BD2E
:100DA00002460099204600F07FFC012038BD01205A
:100DB00001F087B9F8B5AFF30080054600200C4676
:100DC000102000BF0646A819A0420DD93246694638
:100DD0000020AFF30080070008BF01F072F900980F
:100DE000A04218BF0546C419FFF7C8FF05600746B3
:100DF000F01D20F007004619284600F00AF8B4421A
:100E000008BFF8BDA21B31463868BDE8F84000F0C5
:100E10004BBC00210160C0E90110704710207047F1
:100E200009684A0501D540B27047C905FCD500B232
:100E3000704709684A0501D5C0B27047C905FCD59D
:100E400080B270472DE9F0470D4699469246044618
:100E500000F124080168880604D5E06921F010013A
:100E6000216000E00120A84201DD471B00E00027CF
:100E7000A1697A1902EB0900081AA0612078C0065E
:100E800002D42046FFF7F0FB002608E0D4E9012158
:100E90001AF806009047206A401C761C20624E45D6
:100EA000F4DB2078C0060AD52046FFF7DDFB06E01C
:100EB000D4E9012130209047206A401C2062381E6E
:100EC000A7F10107F4DC07E0D4E9012118F80500D7
:100ED0009047206A401C2062281EA5F10105F3DC22
:100EE0002046FFF7D7FB2078000602D50220BDE898
:100EF000F0870120FBE711680268006A530501D5FD
:100F000008700AE0D30501D5088006E0130603D572
:100F1000C217C1E9000200E008600120704700002C
:100F200001694A1C02610878704700B58FB0CDE9AD
:100F300001310021059105497944CDE9031011469D
:100F40006846FFF767FC0FB000BD0000E5FFFFFF3C
:100F50000A6802F8010B0A607047D1E900239A423F
:100F600002D2531C0B601070704710B5436913B167
:100F7000AFF3008001E0FFF79EFB012010BD127867
:100F800000F124010A7000224A700122EDE7116885
:100F90004FF0FF32E9E70000074B70B50D467B4488
:100FA000FFF7C3FF0446284600F080FF10B14FF062
:100FB000FF3070BD204670BD3BAA00002DE9FF5FE9
:100FC00015468A460446DFF8AC80F8440027D8E985
:100FD00000103E46CDE9001010E03AF816106A46BF
:100FE00002A801F047F8411C07D02178890603D5F3
:100FF000E269391891420DD80744761C20788006A2
:1010000002D5E069B84205DDAE42E6DB3AF81600EB
:101010000028E2D1A069C01BA0612046FFF724FB95
:10102000D8E90010CDE90010002017E03AF81810B8
:101030006A4602A801F01EF8B0F1FF3F81460BD0CE
:1010400000250DF1080B05E0D4E901211BF805008E
:1010500090476D1C4D45F7D308F10100B042804622
:10106000E4DB206A384420622046FFF713FBBDE82A
:10107000FF9F0000061E01002DE9F0418046D21DB1
:1010800022F007020025D2E90002F52915A614D0A6
:10109000011E72F1000106DA0023D0EB030063EBBE
:1010A000020211A608E0D8F800108B0701D50FA6A0
:1010B00002E0490701D50EA601251146002408F1DA
:1010C000240704E000F00AFB30323A55641C50EA71
:1010D0000102F7D12B46324621464046BDE8F04199
:1010E000FFF7B0BE000000002D0000002B00000044
:1010F0002000000030B4002100F1240408E002F0D8
:101100000705D208303542EA4372DB086554491CB2
:1011100052EA0305F3D10468002310A2250707D57E
:10112000A40600D421B1C46901230DA2641EC461C8
:1011300030BCFFF787BE10B5044621461068FFF7A4
:1011400078FE02462046BDE810400023D2E7D21DBB
:1011500022F00701D1E90023CCE7000000000000E5
:10116000300000002DE9F04705460C46C86820F421
:10117000201040F48000C860800602D5084600F0C8
:10118000B0F9E06841F282014FF0FF3901400229D5
:1011900003D0204600F04EF9B5E000F42041B1F54F
:1011A000004F0FD1C00306D56168E06A884200D8BD
:1011B0000846606006E02069E0626060606908F0EF
:1011C00025FEA061A0680022EEB200280DDAE168D9
:1011D0008B050AD4C043A06041F490302260E060E7
:1011E0006068411C61600670A5E0E068904622607E
:1011F00040F40050E060206968BB606908F008FEB8
:10120000012704F12405A0B1A08910F4407F08D083
:10121000E069FFF708F9206118B1E06840F4006068
:1012200016E0E7612561E06820F4407040F48060DA
:101230000EE0E069FFF7F7F800282061F1D0E068E0
:1012400040F4006010F4407FE06002D140F4807010
:10125000E06020696060E06825696FF0010AC105FF
:101260001FD56168E06A884200D80846411B04D057
:101270002246284600F0E8F8F0BBE068010203D5FA
:10128000E562C4E9015854E0691CE1626160E1690A
:1012900040F48030491EC4E9021030462E70BDE88B
:1012A000F087010202D500F480320AE06068411C38
:1012B00061600670E0680A2E40F48030E06006D07D
:1012C0000022E16A6068814203D90B4602E00122F4
:1012D000F7E70346A7895B1B7F0503D4E7699F42B5
:1012E00000DDE2B1814200D80146E5620F1AC4E98F
:1012F0000158002B09DD00E005E02246194628468A
:1013000000F0A2F808B14846C9E747B1A069E56214
:101310006560C01BA061E06840F01000E060E0681C
:10132000000208D56168A069E562491B0844656050
:10133000A0615046B3E73046B1E700002DE9F04127
:10134000044616460D464769007B80072ED0384676
:1013500008F05EFD50BB3EB3012E02D0022E25D117
:1013600004E0204600F0A6FD05441DE0384608F0E4
:101370004DFDE168002841F01001E16005DA2046EA
:1013800000F058F80120BDE8F081C9030BD5626870
:10139000E16A914200D81146A26911442269891A72
:1013A000814200DD08460544002D01DA0220EAE70B
:1013B000E16A6068E268814206D29103E06203D587
:1013C00022F4003141F01002A6690027AE4213DC7E
:1013D000E16A814201D90B4600E0034603EB060CAB
:1013E0002369ACEB030CAC4506DD814201D98C4688
:1013F00000E084469C4505D1A760276042F02000AC
:10140000A5620DE0AD1BE669AE1B8142A66000D966
:101410000846C01A281A20605819606022F020007F
:1014200003490840E060002084F84870ABE7000002
:10143000BFCFD7FFC16821F4001141F08001C16026
:1014400000218160016070472DE9F0478146144614
:101450000E464FF0FF383248D5685769054209D02B
:101460003846A16908F0F4FC002811DB2C48C04381
:101470000540E5602B4632464946384608F0EAFC0E
:10148000A16920F00042B21A11440028A16103D0E2
:101490002046FFF7CFFF4046BDE8F08770B5044611
:1014A0000569C06A6168884200D80846E16821F48D
:1014B0002011E160C90312D5A84208D02246411B81
:1014C0002846FFF7C1FF10B14FF0FF3070BD00207C
:1014D000E562C4E90150E06820F48030E06000205B
:1014E00070BD10B50446C06820F02000E060A16A1D
:1014F000A06988420DD02046FFF7D0FFE06820F4B5
:10150000405040F01000E060A06AA0612069E062F5
:10151000606044F24001E0688843E06010BD000074
:101520001000020010B542485421FFF790FB4148DB
:101530005421FFF78CFB40485421FFF788FB3F49BB
:101540003B483C4A3F4B08603D490A603A491960B4
:10155000531C0365481C1065012008653B48344A4C
:1015600039A1784400F0EAFC20B9384878440A38B8
:1015700000F0A0FD37482F4A35A1784400F0DEFC8A
:1015800020B9344878440A3800F094FD32482A4A99
:101590002FA1784400F0D2FC20B92F4878440A38B3
:1015A00000F088FD40232248DC000021224600F0A4
:1015B000A2FC20B125487844543800F07BFD1D483A
:1015C00022464023002100F096FC20B121487844B7
:1015D000543800F06FFD184822461023002100F017
:1015E0008AFC002806D01C487844BDE810405638D4
:1015F00000F060BD10BD104870B5006D20F0010412
:101600000B4800F011FD0B4800F00EFD0A4800F0F9
:101610000BFD09E0206D20F00105204600F004FDDF
:101620002046FEF72FFF2C46002CF3D170BD0000A2
:10163000ACD0002000D1002054D100207403002041
:10164000780300207C030020720000001C180100B9
:10165000770000000B180100FB1701004FF000029B
:101660000429C0F0128010F0030C3FF4F2AACCF170
:10167000040CBCF1020F18BF00F8012BA8BF20F822
:10168000022BA1EB0C01FFF7E4BA5FEAC17C24BF97
:1016900000F8012B00F8012B48BF00F8012B704720
:1016A00000487047A8D10020034640688C460028B7
:1016B00018BF88423CBF03464068F8D318681844F6
:1016C000884207D00CF1030020F00700001D411AEA
:1016D000521A0146081D0A60FEF7D4BE30B5B0F1BB
:1016E0000A024FEA900E71F100034EEA817EB0EBE0
:1016F0000E0061EB91014FEA101E4EEA017E10EBE5
:101700000E0041EB11114FEA102E4EEA016E10EB64
:101710000E0041EB11214FEA104E4EEA014E10EB44
:101720000E0041EB1141401841F100014FEAD00099
:1017300040EA41704FEAD10110EB80054FEA810485
:1017400044EA907444EB01046D1944EB0404521B09
:10175000A3414FF0000348BF0A3200D530BD401C02
:1017600041F1000130BD70472DE9FF4F0C461E4688
:101770004FF0FF378BB0D2E90001DDF860800A90AE
:101780008A46C1F30A5505B93D46002108464FF087
:101790000000BAF1000F00F4400005DA00EB800011
:1017A0004FF4400101EA50004FEA9059B9F1010F9E
:1017B00000DDB9460A9850EA4A000ED044F61050AF
:1017C000A5F2FF3545432F14B8F1000F1ED0754226
:1017D000291E1EDDC9F100021CE0B8F1010F4FF017
:1017E000000001D0302103E0F24305E02154401C09
:1017F000B042FBDB30460022002121540B99C1F896
:101800000880C1E900200FB0BDE8F08FBD1B6D1C42
:10181000DEE74A4600DA694206A800F0CFFC06ABD4
:1018200093E8070003AB83E8070050460A9900F0ED
:10183000A0FD8DE80700A0F500501F380090039828
:10184000002D0ADD42F21F014A460844002303A985
:101850000390684601F009F809E0A0F500504A46F7
:101860001F38002303A90390684601F013F88DE8A0
:1018700007000004000C03D04FF0FF30410800E0E7
:101880001046B8F1000F03D00022009215461EE06A
:10189000751E05D4FFF722FF303262556D1EF9D553
:1018A000B3460122084302D000227F1C04E02078C6
:1018B000302801D100227F1E002A099784D01DE024
:1018C000112D07DAFFF70AFF303262556D1C50EA1E
:1018D0000102F5D1084302D00098C8B10EE0002102
:1018E000681E05E0235C625C63542254401E491C60
:1018F0008142F7DBAB46A81B401E0990002004F88C
:101900000B000B98099AC0F80880C0E9002B7AE711
:1019100011264FF0000857E72DE9F04F884604469E
:10192000D21D22F0070191B0D1E90001CDE90A01F1
:1019300008F0E2F902460B98C00F01D02D2007E015
:101940002068810701D52B2002E0202101EAC00098
:10195000032A099001D0072A05DB034641462046A9
:1019600000F0ECFB0BE12078800601D5E06900E097
:101970000620B8F1650F814606D0B8F1660F18D081
:10198000B8F1670F70D131E00020B9F1110F00906C
:1019900001DB112301E009F101030AAA01A90CA846
:1019A000FFF7E2FEDDE90C70002609F10105834630
:1019B00047E001204B4600904FF000470AAA01A9DA
:1019C0000CA8FFF7D1FEDDE90DB00C995D460026AD
:1019D00010B909F101000D18B9EB050003D4C0F1ED
:1019E000FF3609F10105A5EB09002BE0B9F1010F64
:1019F00001DA4FF001090020B9F1110F00904846BB
:101A000001DD112300E003460AAA01A90CA8FFF793
:101A1000ABFEDDE90C704D460026834620780007BA
:101A20000AD4AB4500DA5D4601A8012D04DD411959
:101A300011F8011C302907D04F4502DA17F1040FC5
:101A400004DA012082460FE06D1EEEE7002F02DC73
:101A5000ED1B3E4403E0781CA84200DD7D1CB81B52
:101A600000F1010A4FF000472078000703D4AA458F
:101A700001DB4FF0FF3A0021B7F1004F0DF14308B1
:101A80008DF8431024D002202B23002F01DA7F424F
:101A90002D230A21021EA0F1010000DC5FB197FB9B
:101AA000F1FC97FBF1F201FB1C7C17460CF1300CAA
:101AB00008F801CDEEE7A8F10100037021880905BF
:101AC00001D5452100E06521A0F1010800F8011CC5
:101AD00009980FA9A1EB0807FF1D00B101204119CA
:101AE00001EBEA70A1693844081A401EA061207811
:101AF000C00602D42046FEF7B7FD099828B1D4E904
:101B000001219047206A401C20622078C00622D51F
:101B10002046FEF7A9FD1EE0002E04DBB34502DDE2
:101B200001A8805D00E03020D4E901219047206ABF
:101B3000401C2062761CAAF101005FEA000A0AD16B
:101B400000F0F4FAC0680168405CD4E901219047D4
:101B5000206A401C2062281EA5F10105DCDC07E09C
:101B6000D4E9012118F8010B9047206A401C20623B
:101B7000381EA7F10107F3DC2046FEF78BFD03209A
:101B800011B041E62DE9F04F04460D46D21D22F07A
:101B9000070089B0D0E900974846394608F0ACF80C
:101BA0000246F80F01D02D2307E02068810701D5F8
:101BB0002B2302E0202101EAC0038DF820300BB175
:101BC000012000E00020032A824601D0072A04DB1E
:101BD0002946204600F0B2FA3FE12078800601D481
:101BE0000D2500E0E569C7F30A560D2D49DA0021FD
:101BF0004FEA175B08464FF00000002F00F440004A
:101C000007DA00EB80004FF4400100EBD07001EAEE
:101C100060008115012901DD4FF0FF3100224FEAFC
:101C2000850CBCF1180F06D31346ACF118004FF029
:101C30008052C24003E04FF4801323FA0CF30CF1FE
:101C40000C0CBCF1200F04D3ACF1200C09FA0CF001
:101C500001E007FA0CF000294FF0004801DD18B947
:101C60000FE00ED140450CD319EB02095F4121B9B9
:101C7000404502D19F4329EA0209BBEB175F00D020
:101C8000761C2088000502D57B48784402E07A481B
:101C90007844193808AA302302F80A30037C0AF184
:101CA0000101002E0AF1020A53546A4602DC4FF089
:101CB000300101E04FF031014FF001088DF80010C4
:101CC00002D0A6F2FF3603E059EA470100D06B4E7E
:101CD000002D02DC2178090704D54FF002082E21DF
:101CE0008DF80110C44600210BE0C7F303433F0108
:101CF000C35C491C6D1E02F80830052908F1010873
:101D000001DA002DF1DC00210CE000EB1973491C15
:101D10001B786D1E082902F808304FEA091908F1EE
:101D2000010801DA002DF0DC21688B0602D516E0EF
:101D3000A8F10108E04505DD02EB080313F8013CBA
:101D4000302BF5D0B8F1000F09DD02EB080313F8D2
:101D5000013C2E2B03D1090701D4A8F10108002D65
:101D600005DD3E2102F808106D1E08F10108407CD7
:101D7000002E02F8080008F1010804DA2D2076424E
:101D800002F8080002E02B2002F808000A214FF4B4
:101D90007A70864208F101080BDB96FBF0F33033D2
:101DA00002F8083096FBF0F308F1010800FB136617
:101DB00001E0642E0CDB642096FBF0F3303302F874
:101DC000083096FBF0F308F1010800FB136601E010
:101DD0000A2E06DB96FBF1F0303002F8080008F11D
:101DE000010896FBF1F001FB1060303002F80800AA
:101DF000A16908F1010808EB050202EB0A00081AC4
:101E0000A0612078C00602D42046FEF72DFC216A8E
:101E100008AE01EB0A00206204E0D4E9012116F8C3
:101E2000010B9047BAF1010AF7D22078C00602D51B
:101E30002046FEF719FC6E4609E016F8010B3E2815
:101E40000FD0D4E901219047206A401C2062B8F1EC
:101E50000108F2D22046FEF71DFC09B00320BDE8C0
:101E6000F08F206A2844206203E0D4E90121302069
:101E700090476D1EEBD3F8E76111010002FCFFFFF4
:101E800010B5436913B1AFF3008001E0FFF796F896
:101E9000012010BD128800F1240182840022C28436
:101EA0000122EDE711684FF0FF32E9E7007B00F017
:101EB0008000704710B50146C268900703D09006B5
:101EC00007D5886A0AE000F035F901210160881E13
:101ED00010BD8B69486818440B69C01A91F84830E6
:101EE0001BB191F84910401A10BD1103FCD5002810
:101EF000FADD401E10BD70B5C468A50713D0650299
:101F000011D4B2F5807F09D0B2F5007F06D0B2F5CA
:101F1000806F08D1012300F1240106E05D1E6FF0FF
:101F20007F46B54201D3012070BD0161C3614160AC
:101F300024F470611143C160002070BD2DE9F041AF
:101F40000C4607461646104600F06EF82078611CD5
:101F500061280AD0722802D077283CD102E00125FE
:101F6000002405E00225042402E0082448F20205CA
:101F700011F8010B2B2806D0622809D011F8010CAA
:101F800074280AD00BE045F0030544F00204EFE7A3
:101F900045F0040544F00104EAE744F01004384633
:101FA000214607F03DFF411C15D0002131617160D1
:101FB0004FF40071F560F1617061200704D530467F
:101FC00002220021FFF7BAF9306D40F001003065C0
:101FD0003046BDE8F0810020FBE72DE9F0410D46D9
:101FE0000646104C206DC10704D0410804D020F0F3
:101FF0000104F7E722460EE05420FEF714FA07002A
:102000000ED0206D47F00101084354212065384669
:10201000FEF71DFE3A4629463046BDE8F0418DE701
:102020000020D6E7ACD000202DE9F04704464FF061
:1020300000094FF0FF37C568D4E90486A80707D028
:102040002046FFF72BFA304607F0DDFE002802DAC3
:102050003846BDE8F087280502D54046FEF712FA5B
:102060004C212046FEF7F3FD206D20F00100206595
:102070004846EEE770B516460C46054600F04EF8A9
:10208000036893F80101012806D0FF2C0FD8185DD2
:1020900068B101202C7070BDD3F80701324621468B
:1020A00003F2071303442846BDE8704018474FF079
:1020B000FF3070BD10B500F001F9BDE8104000F030
:1020C000F8B810B500F014F9BDE8104000F0F1B810
:1020D0007546FFF7E5FAAE4605006946534620F01F
:1020E0000700854618B020B5FEF78AF9BDE8204004
:1020F0004FF000064FF000074FF000084FF0000BC4
:1021000021F00701AC46ACE8C009ACE8C009ACE876
:10211000C009ACE8C0098D467047000010B500F05A
:1021200005F8001D10BD00BF81F900000048704790
:10213000C8D1002000487047A8D100202DE9F04107
:102140001F46044603260168072A01F4006004DBE9
:1021500008B116A505E016A503E008B115A500E035
:1021600015A521F010002060A069C01EA0610FB16C
:10217000401EA0612046FEF777FA4FB1D4E9012155
:1021800038469047206A401C2062C01C206206E04E
:10219000206AFAE7D4E9012115F8010B9047761E71
:1021A000F8D22046FEF776FABDE8F0814E414E00A7
:1021B0006E616E00494E4600696E66002DE9F0477B
:1021C000814616468AB0354878440DC88DE80D0022
:1021D00032487844801C03AC0DC884E80D0041F6F9
:1021E0009B300844372190FBF1F290FBF1F5A5F10B
:1021F000800501FB12041B3C02D56442012000E073
:102200000020DFF898A080460027FA44AAF1BE0A11
:102210000EE0E0070AD03246684607EB470101238B
:102220000AEB810100F036FB8DE8070064107F1C8B
:10223000002CEED1194F7F44AE3F19E0E80715D0CE
:1022400007EB04100DF1180A90E80E008AE80E0062
:10225000C068F04201D1981908903246012306A9BE
:1022600003A800F017FB03AB83E807006D10641CA4
:10227000002DE3D14FF0010332466946B8F1000F5B
:1022800003A802D000F0F1FA01E000F003FBC9E975
:102290000001C9F808200AB0BDE8F087B40C0100BD
:1022A00010B50446AFF300802046BDE81040FEF7AD
:1022B00032B8002801D007F0A8BD704710B501461C
:1022C00002A000F03DF8012010BD00005349475224
:1022D000545245443A2052656469726563743A20E9
:1022E00063616E2774206F70656E3A2000000000F5
:1022F00010B5012805D0002103A000F021F801202D
:1023000010BD09A1F8E7000053494752544D454D0F
:102310003A204F7574206F662068656170206D6586
:102320006D6F7279000000003A2048656170206D81
:10233000656D6F727920636F727275707465640079
:1023400070B505460C460A2000E06D1C07F08EFDB6
:1023500035B128780028F8D102E0641C07F086FD2A
:1023600014B120780028F8D1BDE870400A2007F0A9
:102370007DBD5FEA400C08BF91F0000F4FEA8C234F
:102380004FEAC12243EA51514FEA1C5018BF00F5F1
:10239000F0404FEA300018BF41F000415FEA6C5C4A
:1023A00000F02980BCF1FF3F08BF40F0804070473B
:1023B000130C06BF12044FF0100C4FF0000C130E5C
:1023C00004BF12020CF1080C130F04BF12010CF130
:1023D000040C930F04BF92000CF1020CD30F04BF46
:1023E00052000CF1010C11464FF00002A0F11F0049
:1023F000A0EB0C00704711F0004F08BF704731F0A0
:1024000000413FF4D5AF0B0C06BF09044FF0100C90
:102410004FF0000C0B0E04BF09020CF1080C0B0F5F
:1024200004BF09010CF1040C8B0F04BF89000CF1EF
:10243000020CCB0F04BF49000CF1010CCCF12003BE
:10244000A0EB0C0022FA03F302FA0CF241EA0301BA
:1024500000F10100704720F07F4C80EA030023F078
:102460007F47ACEB070303F57C5300F0004003F11A
:10247000FF032DE980494FEA154B09B44FEA144395
:1024800025EA0B4E24EA03480FF2042606EB132735
:1024900049083E785FEA320203FB0667C7F500078A
:1024A00007FB06F64FEA54374FEAD64606F1020616
:1024B00007FB066CCCF1005C4FEA1C472CEA074C8A
:1024C00007FB06F40CFB06F504EB15464FEA9616DF
:1024D00034BF00204FF000404FEAD13706FB07FC25
:1024E0004FEA1C4C0CFB0BF7D21B03FB0CF761EB08
:1024F00007010CFB0EF7B0EB074072EB17420CFB29
:1025000008F734BFA2EB0742B2EB074261EB174179
:102510004FEA0C444FEA910706FB07FC4FEA1C4CBC
:102520000CFB0BF7B0EBC74072EB573203FB0CF719
:1025300034BFA2EBC742B2EBC74261EB57310CFB91
:102540000EF7B0EBC70072EB57720CFB08F734BF05
:10255000A2EBC702B2EBC70261EB5771039F4FEAD0
:10256000816141EA921104EBCC044FEAD1374FEA82
:10257000826206FB07FC42EA90124FEA80604FEA53
:102580001C4C0CFB0BF7D21B03FB0CF761EB070198
:102590000CFB0EF7B0EB074072EB17420CFB08F791
:1025A00034BFA2EB0742B2EB074261EB17414FEA9F
:1025B0008C554FEA910704EB9C2406FB07FC4FEA7D
:1025C0001C4C0CFB0BF7B0EBC74072EB573203FB14
:1025D0000CF734BFA2EBC742B2EBC74261EB5731F5
:1025E0000CFB0EF7B0EBC70072EB57720CFB08F751
:1025F00034BFA2EBC702B2EBC70261EB577115EB18
:102600004C254FEA816141EA92114FEA82624FEA1A
:10261000D13742EA901206FB07FC44F100044FEA6E
:1026200080604FEA1C4C0CFB0BF7D21B03FB0CF732
:1026300061EB07010CFB0EF7B0EB074072EB1742A2
:102640000CFB08F734BFA2EB0742B2EB074261EB89
:10265000174115EB1C154FEA813141EA92414FEACF
:10266000823242EA90424FEA80304FEA0C7644F1DF
:10267000000448EA03434EEA0B484FF0000EB2EB69
:10268000080C71EB030724BF624639464EEB0E0E71
:102690004FF0000B0018524149414BEB0B0BB2EBD2
:1026A000080C71EB03077BF1000B24BF624639462F
:1026B0004EEB0E0E4FF0000B0018524149414BEB10
:1026C0000B0BB2EB080C71EB03077BF1000B24BF83
:1026D000624639464EEB0E0E51EA020718BF46F02D
:1026E000010616EB0E7655F1000254F1000103D5F8
:1026F000BDE88901BDE80088BDE88901BDE8004862
:10270000B619524141EB0101A3F1010370478080EA
:102710007F7E7D7C7B7A797877767675747372713B
:1027200071706F6E6E6D6C6C6B6A6A6968686766F3
:1027300066656464636362616160605F5F5E5E5D85
:102740005D5C5C5B5B5A5A595958585757565655F9
:1027500055555454535352525251515050504F4F5B
:102760004F4E4E4D4D4D4C4C4C4B4B4B4A4A4A49AB
:1027700049494848484747474746464645454544EE
:102780004444444343434342424242414141002B7B
:102790009C4630D477002BD01CB54FEA370703B4E2
:1027A0004FF010004FF01001BAF1000F06D0BCF14D
:1027B000000FDCBF40F0080040F008014FF00000BF
:1027C0000FBCBDE810400BF1010BBBF1010F08BFBE
:1027D0005FEA170722BF12F1010211F101014FF068
:1027E000004143F1000300F0004043EA000070475D
:1027F000F9D35708D0E746EA064613F1400F4FEAEF
:1028000016461FDD13F1200FDFBF16430A460021D5
:1028100020335B42BED0C3F1200746EA064602FAE7
:1028200007F74FEA164646EA0706C3F1200722FAE1
:1028300003F201FA07F721FA03F14FF0000342EA2D
:102840000702A7E746EA020646EA06464FEA1646A8
:1028500046EA0106BCBF46EA0646360C4FF00003C6
:102860004FF000024FF0000194E72DE9804C9A46AA
:10287000934670B491E8380007C831EA400C48BF6D
:1028800034EA430C03D5FFF7E6FDFFF780FFF0BC09
:10289000BDE8008C2DE9804C9A46934670B491E8CF
:1028A000380007C810F0804F08BF13F0804F03D1E5
:1028B00000F005F8FFF76BFFF0BCBDE8008C20F0DE
:1028C0007F4780EA030023F07F4C07EB0C03A3F55E
:1028D0007C5300F00040A3F1FE0392F0000F00F0E3
:1028E000B38095F0000F00F077802DE901494FEAA1
:1028F00011404FEA144621EA004800FB06FC24EA96
:10290000064708FB06F607FB08F800FB07F718EB7D
:1029100006484CEB164C4FEA124B18EB07484FEAAF
:1029200015464CEB174022EA0B4E0BFB06FC25EA42
:1029300006470EFB06F607FB0EFE0BFB07F71EEB2A
:10294000064E4CEB164C4FF000061EEB074E4CEBC0
:10295000174B18EB0B0840F1000018EB0E0B58EB6F
:10296000000840F100008F1A4FF000013CBFC9433E
:10297000661B14BFB5EB040C00213CBFC943F61B1A
:102980004FEA17444EEA8E0E27EA04454FEA1C47E9
:1029900004FB07622CEA074C05FB07F70CFB05F666
:1029A00004FB0CFC16EB074642EB174216EB0C46F9
:1029B00042EB1C421BEB060658EB0202414146EA81
:1029C0009E0601D5BDE80189B619524141EB0101CE
:1029D000A3F10103BDE801894FEA14454FEA11470D
:1029E00024EA054621EA074C05FB07F406FB07F736
:1029F0000CFB06F105FB0CFC11EB074144EB174403
:102A00004FEA124711EB0C4144EB1C4422EA074CFD
:102A100005FB07F206FB07F70CFB06F605FB0CFCB3
:102A200016EB074642EB174216EB0C4642EB1C45F1
:102A30006A1854F1000148BF7047B619524141EB82
:102A40000101A3F10103704795F0000F37D04FEA61
:102A500011424FEA144721EA024624EA074C02FBDE
:102A600007F106FB07F70CFB06F402FB0CFC14EB6A
:102A7000074441EB17414FEA154714EB0C4441EB77
:102A80001C4125EA074C02FB07F506FB07F70CFB88
:102A900006F602FB0CFC16EB074645EB174516EB5A
:102AA0000C4645EB1C42121951F1000148BF70471A
:102AB000B619524141EB0101A3F1010370474FEAFE
:102AC00014454FEA114724EA054621EA074C05FB65
:102AD00007F106FB07F70CFB06F24FF0000605FBBB
:102AE0000CFC12EB074241EB174112EB0C4251EB8D
:102AF0001C4148BF7047921841EB0101A3F101034B
:102B0000704730B50C4605000BD0022C09D9A01E29
:102B100081B2284600F062F8020A291901F8022D54
:102B2000487030BDFEE7002070470020704700006D
:102B300010B500220449054805F034FB0449034858
:102B400005F023FB002010BD6C1B0020900E002020
:102B50006C13002070B506460D4610A0FDF75CFD15
:102B60000FA02968FDF758FD14A0FDF755FD0024BE
:102B700004E0315D16A0FDF74FFD641C2868A042FB
:102B8000F7D806A0FDF748FD3146124805F0FDFADA
:102B9000104805F0D3FA002070BD00000D0A0000B7
:102BA0007573622072656365697665206C656E6712
:102BB00074683A202564200D0A0000007061636B80
:102BC00061676520636F6E74656E743A2000000063
:102BD00025782000900E00200020704770B5094D28
:102BE000FF22134605F5807606E000BF10F8014B82
:102BF00054402A5D5A40335D491E89B2F6D243EAF9
:102C0000022070BD521F0208014800F02DBD0000D7
:102C1000480B0020014800F027BD0000C80C002030
:102C2000014800F021BD0000280D0020014800F0FF
:102C30001BBD0000080C0020014800F015BD00007D
:102C4000680C0020014800F00FBD0000A80B002018
:102C5000014800F009BD0000880D0020014800F087
:102C600003BD0000E80D002001681823CAB2103A25
:102C7000B2FBF3F2054B6FF30901032A9B5CC365BA
:102C800000D9091D8165084670470000901B0208A5
:102C900010B5014600208B698A6A4FF0C07453B1A9
:102CA000B3F5005F15D072B1012A0CD0022A0AD008
:102CB000032A09D104E01AB1012A06D0022A03D15D
:102CC000C96AC90100D5012010BDC96AA142FAD064
:102CD00010BD002AF7D0012AF2D0022AF3D0032A2D
:102CE000F3D010BD30B50468256825F48025256033
:102CF000046863608368402B036803D099600068B0
:102D0000C26030BD9A600068C16030BD704772B665
:102D1000FEE700002DE9F04115460F46060002F1DE
:102D20000C080CD00DF090FE384600F0F5FB48B1D1
:102D3000C6F800000DF0A8FE0020BDE8F0816FF09D
:102D40000100FAE718200CF0F1F904000FD000227E
:102D50004346114604F11000346003F045FD0020A5
:102D60006760A0722581E0602060054803E04FF0B5
:102D7000FF30E2E7084601680029FBD10460D9E78B
:102D80005803002070B51D46160012D000F0D4FB89
:102D9000040011D0606890B172B6028904F10C0190
:102DA0003046FDF7D5FE0DB1A068286062B6002060
:102DB00070BD6FF0010070BD6FF0030070BD6FF06B
:102DC000020070BD2DE9F74F0546006882B09246BB
:102DD00000894FF0000800900AF073FE81462868D1
:102DE000C768B8B1B7B14FF0FF3B7E68B068A0B11B
:102DF00028684168304600F09FFB040042D072B65C
:102E000004F10C00009A0399FDF7A2FE2868C4E9BA
:102E1000010924E06FF0010839E072B6286810302B
:102E200003F0D6FC040062B601D14FF00108BAF1FC
:102E3000010F01D14FF0020AECB104F10C00009A2D
:102E40000399FDF785FE286860600020C4F80890AB
:102E5000206072B6306898B170680460746062B6C1
:102E600012E072B62868103003F0B2FC62B6584621
:102E700005B0BDE8F08FBAF1000FF2D1D84603E0FB
:102E80003460EBE76FF003083F68002FADD1404698
:102E9000EEE7F8B5054616460F460024084600F052
:102EA0003BFB009038B9B2B239466846FFF732FFB3
:102EB000040001D1009828602046F8BD2DE9FC5F90
:102EC0000446002001901E4615468B4602F10C0870
:102ED000084600F021FB009030B9AAB25946684676
:102EE000FFF718FF009890B34FF0000908200CF08E
:102EF0001DF907003ED0CA46C7E900A40C200CF01B
:102F000015F9050036D0C5E900ABA0680C3410B146
:102F100001282AD026E00C98A86046B106FB08F0EC
:102F20000CF004F95FEA000924D000E004462068B0
:102F30000028FBD1256072B636B100984346324670
:102F40004946103003F030FC00980C3001E011E0ED
:102F5000084601680029FBD107600098C17A491C26
:102F6000C17262B60198BDE8FC9F40460CF0DEF8E5
:102F7000A86018B94FF0FF30F5E704462068002834
:102F8000FBD1256072B600980C3000E0084601685D
:102F90000029FBD1E0E700220260C0E90121C26004
:102FA00010467047002229B101291AD002291BD0EE
:102FB0004FF440720E490B6823F440730B600B68AA
:102FC00013430B600A6822F0F8020A600A680223C1
:102FD00003EBC00002430A60086840F480300860D8
:102FE00070474FF48072E5E74FF40072E2E70000AB
:102FF000103C02401348016889050FD5016821F48F
:1030000000710160016841F400610160016821F410
:1030100000610160016841F40071016001684905C7
:103020000FD5016821F480610160016841F480518D
:103030000160016821F480510160016841F4806100
:1030400001607047003C024008490A6822F440725F
:103050000A600A6842F004020A600A684FF480338A
:1030600043EA002002430A6070470000103C02401F
:10307000064A136823F440731360136813601368DF
:1030800043F001031360017070470000103C0240E0
:10309000094910B50C6824F440740C600C6844F4C1
:1030A00040740C600C6844F001040C600260BFF3D3
:1030B0006F8F436010BD0000103C0240074A136848
:1030C00023F440731360136843F480731360136830
:1030D00043F001031360018070470000103C024080
:1030E000074A136823F440731360136843F40073B2
:1030F0001360136843F00103136001607047000020
:10310000103C024017490868C206174805D5C26935
:1031100042F01002C26110220A600A68920605D5C8
:10312000C26942F00802C26120220A600A6852069F
:1031300005D5C26942F00402C26140220A600A68F1
:10314000120605D5C26942F00202C26180220A60FD
:103150000A68920705D5C26942F02002C2610220C6
:10316000086070470C3C0240982A002070B5114955
:1031700004460020C86100F07DFE06460E4D09E0C1
:10318000601C07D024B100F075FE801BA04201D95D
:10319000032070BD2868C003F2D42868C00701D09E
:1031A00001202860286810F0F200F2D0FFF7AAFF93
:1031B000012070BD982A00200C3C02402DE9F0410E
:1031C0000446067903680020E58818E000EB400714
:1031D00013F827C08C4510D103EB87077F78B742DF
:1031E0000BD100EB400003EB8000057A416809B188
:1031F000104688472571BDE8F081401C80B28542A9
:10320000E4D8F8E701600371C2807047E2B00AF0C9
:10321000E3FB80460AF0E4FB07460AF097FB06460C
:103220000AF0D4FBDFF878A24FF47A7904283CD373
:103230000AF047FC4C4690FBF4F109FB11050AF03B
:1032400040FC90FBF4F301AC8021204695A2009550
:10325000FDF7EEF90546DAF810000090C5F180019F
:10326000601993A395A2FDF7E3F90544C5F1800128
:103270006019954B92A2FDF7DBF90544C5F1800179
:10328000601992A20AF093FE054495A101A8FDF7EA
:10329000B7FB30B9C5F18001601991A2FDF7C8F9FB
:1032A0000544A9B201A80DF0A1F80BF08CF90DF1BD
:1032B000040B6190D8F87410404609B188474AE081
:1032C0000AF084FB022846D30AF0FBFB4C4690FB35
:1032D000F4F109FB11050AF0F4FB90FBF4F38021F3
:1032E0005C4658466FA20095FDF7A2F90546DAF84C
:1032F00008000090C5F1800160196DA36FA2FDF771
:1033000097F90544C5F1800160196F4B6CA2FDF778
:103310008FF9054426200090C5F18001601971A342
:1033200077A2FDF785F90544C5F18001601976A201
:103330000AF03DFE05446AA101A8FDF761FB30B922
:10334000C5F18001601966A2FDF772F90544A9B2C2
:1033500001A80DF04BF8796F11B1384688474AE063
:103360000AF034FB022846D30AF0ABFB4C4690FB34
:10337000F4F109FB11050AF0A4FB90FBF4F321AC76
:103380008021204647A20095FDF752F90546DAF85C
:1033900008000090C5F18001601945A347A2FDF720
:1033A00047F90544C5F180016019474B44A2FDF778
:1033B0003FF905442C200090C5F18001601949A314
:1033C0004FA2FDF735F90544C5F1800160194EA201
:1033D0000AF0EDFD054442A121A8FDF711FB30B92B
:1033E000C5F1800160193EA2FDF722F90544A9B29A
:1033F00021A80CF0FBFF716D11B1304688474AE0FF
:103400000AF0E4FA022846D30AF05BFB4C4690FB34
:10341000F4F109FB11050AF054FB90FBF4F341AC05
:10342000802120461FA20095FDF702F90546DAF833
:1034300008000090C5F1800160191DA31FA2FDF7CF
:10344000F7F80544C5F1800160191F4B1CA2FDF778
:10345000EFF8054431200090C5F18001601921A3E7
:1034600027A2FDF7E5F80544C5F18001601926A201
:103470000AF09DFD05441AA141A8FDF7C1FA30B933
:10348000C5F18001601916A2FDF7D2F80544A9B272
:1034900041A80CF0ABFF0A2161A80BF088F809E7FE
:1034A0003C0300205B25642E253033645D00000062
:1034B00066736D5F7461736B000000005B25735D64
:1034C0005B25735D00000000CC1E020846736D5F33
:1034D0005461736B5F6C61756E636821000000005E
:1034E0000D0A00002E2E5C6170706C696361746956
:1034F0006F6E5C66736D5F7461736B2E63000000AA
:103500002825732C256429006E756C6C20706F69FA
:103510006E7465722100000002460020054904E037
:103520004B68934201D10846704709680029F7D1DA
:1035300070470000580300200C3002682AB153681D
:1035400010468B42F9D180687047002070472DE902
:10355000F0410446876D00F08DFC064694F8350076
:103560000025022806D08020606584F834500120B0
:10357000BDE8F0812068016821F016010160206833
:10358000416921F080014161206C08B9A06C20B133
:103590002068016821F0080101602068016821F0BD
:1035A000010101600CE000F065FC801B052807D9D3
:1035B00020206065032084F8350084F83450D7E774
:1035C00020680068C007EED194F85C103F20884066
:1035D000B860012084F8350084F834500020C7E733
:1035E00090F83510022903D08021416501207047F1
:1035F000052180F835100068016821F001010160A3
:103600000020704770B504002BD094F835000228D4
:1036100026D02068016821F00101016020680025A2
:10362000056020684560206885602068C560206866
:1036300005612168212048612046FFF715FBE563FD
:1036400025646564A564E564256594F85C203F21E4
:1036500091408160656584F8355084F834500020CD
:1036600070BD012070BD00002DE9F84304464FF005
:103670000009CDF8009063484FF41651A56D00681D
:10368000B0FBF1F72E6894F85C10082000FA01F105
:1036900031420FD021680A6852070BD50A6822F020
:1036A00004020A6094F85C108840A860606D40F0E5
:1036B0000100606594F85C104FF0010808FA01F011
:1036C000304208D021684969090604D5A860606DB8
:1036D00040F00200606594F85C100420884030429D
:1036E00008D021680968890704D5A860606D40F09A
:1036F0000400606594F85C1010208840304218D0B7
:1037000021680968090714D5A86020680168490381
:1037100004D50068000308D5A16C07E00168C9055D
:1037200003D4016821F008010160216C09B1204631
:10373000884794F85C1020208840304231D02168BE
:103740000968C9062DD5A86094F8350005282068B9
:10375000016806D0490347D5006800031DD4616C99
:103760001CE021F0160101602068416921F0800110
:103770004161206C08B9A06C20B12068016821F07B
:103780000801016094F85C103F208840A86084F82C
:10379000358084F83490216D1FE0E16B09B120463B
:1037A0008847606D00282BD0606DC00714D00520BD
:1037B00084F835002068016821F00101016000985B
:1037C000401C0090B84203D820680068C007F6D1BA
:1037D00084F8358084F83490E16C002910D001B071
:1037E0002046BDE8F04308470168C905D5D4016803
:1037F00021F01001016084F8358084F83490CCE722
:10380000BDE8F883880000202DE9F041044600F06F
:1038100031FB06465CB1022084F83500002584F8AF
:1038200034502068016821F0010101600DE00120A1
:10383000BDE8F08100F01EFB801B052805D9202083
:103840006065032084F83500F2E720680068C0074F
:10385000F0D12268116820480140D4E901031843DF
:10386000D4E903363343184363691843A369184303
:10387000E3691843236A18430843616A042903D1A2
:10388000D4E90B1319430843106020684069666A45
:1038900020F0070130460E43012704280CD1A06A0E
:1038A0000643E06A40B12046FFF7F2F920B140201C
:1038B000606584F83570BAE7206846612046FFF7F6
:1038C000D3F994F85C203F2191408160656584F8CC
:1038D00035700020ACE700003F8010F070B5044662
:1038E00090F83400002501280CD0012084F8340021
:1038F00094F835600020012E06D084F834000225AB
:10390000284670BD022070BD022684F835606065CF
:103910002046FFF7E7F92068016841F001010160E6
:10392000EEE72DE9F0410446866D90F8340000255D
:1039300001280DD0012084F8340094F8357000205F
:10394000012F07D084F8340002252846BDE8F08115
:103950000220FBE7022784F8357060652046FFF7F8
:10396000C1F994F85C103F208840B060206801687D
:1039700041F016010160206C20B12068016841F01F
:10398000080101602068016841F001010160DCE785
:1039900070B5044600F06EFA0546601C02D004487B
:1039A0000078044400F066FA401BA042FAD370BDD0
:1039B0007C0000202DE9F047044622480F46017E96
:1039C00001290AD00121804601764CF2503948463F
:1039D000FFF7CCFB020003D02FE00220BDE8F08708
:1039E0004FF0FF3038602068174D012801D0A668DD
:1039F0001CE0207C6168FFF727FB4846FFF7B6FB19
:103A00000246286820F00400286014E0217C30463B
:103A1000FFF7C8FA4846FFF7A9FB0200286820F024
:103A2000FA00286001D03E6005E0761CD4E902105F
:103A30000844B042EAD8FFF7DDFA002188F81810F0
:103A40001046CBE7982A0020103C0240034801684A
:103A500041F000410160002070470000103C02402E
:103A60002DE9F0471B4E05461446307E1F46894619
:103A7000012808D0012030764CF250384046FFF73C
:103A800075FB18B114E00220BDE8F0879DB1012D4F
:103A900016D0022D19D022463B464846FFF7F8FAC9
:103AA0004046FFF763FB0C490A6822F001020A60F6
:103AB00000213176E8E7E1B24846FFF7D9FAEFE7AF
:103AC000A1B24846FFF7FAFAEAE721464846FFF76F
:103AD00007FBE5E7982A0020103C02400749002038
:103AE0000A68002A09DA054A054B0C3A1360054BAF
:103AF00013600968002900DA01207047103C024079
:103B000023016745AB89EFCD2DE9F04F0022DFF8A7
:103B100038B101264FF00F0906FA02F401EA040356
:103B2000A3427DD122F003075F44D7F808889507A8
:103B30004FEA157C09FA0CFA0AEA0805DFF80C814D
:103B4000404502D14FF0000832E0DFF804814045E3
:103B500002D14FF001082BE0DFF8F880404502D198
:103B60004FF0020824E0DFF8F080404502D14FF02A
:103B700003081DE0DFF8E480404502D14FF004085F
:103B800016E0DFF8DC80404502D14FF005080FE079
:103B9000DFF8D080404502D14FF0060808E0DFF89A
:103BA000C880404502D14FF0070801E04FF00808F7
:103BB00008FA0CF8A84522D12C4DD5F800C02CEA03
:103BC000030CC5F800C005F1040CDCF800509D435F
:103BD000CCF80050254D0C35D5F800C02CEA030C6C
:103BE000C5F800C02D1FD5F800C02CEA030CC5F89D
:103BF00000C0D7F8085825EA0A05C7F8085805682C
:103C000057000323BB409D430560D50800EB8505A5
:103C1000D5F820C057074FEAD76809FA08F700E03F
:103C20000CE02CEA070CC5F820C0C5689D43C560B0
:103C30004568A543456084689C438460521C102AF3
:103C4000FFF46AAFBDE8F08F003001400000024091
:103C50000004024000080240000C02400010024034
:103C60000014024000180240001C0240003C0140C9
:103C70002DE9F84FDFF8BCA10022012503264FF003
:103C80000F090AF1040BAAF1040E00BF0B6805FA34
:103C900002F42340A34270D10F7907F00307012FEC
:103CA00001D0022F16D187684FEA420806FA08FCB5
:103CB00027EA0C07D1F80CC00CFA08FC4CEA070CF8
:103CC000C0F808C04768A7430C79C4F300149440B7
:103CD0003C4344600C79E443A4070AD0C4684FEA2B
:103CE000420C06FA0CF7BC438F6807FA0CF727431F
:103CF000C7600C7904F00304022C12D1D40800EB45
:103D0000840CDCF820405707FF0E09FA07F824EA74
:103D10000804D1F8108008FA07F848EA0408CCF83B
:103D2000208004684FEA420C06FA0CF7BC430F7976
:103D300007F0030707FA0CF7274307604C6814F4F1
:103D4000403F70D03C4C276847F480472760246888
:103D500022F0030704F480440094384C07EB040C71
:103D6000DCF8084897074FEA177809FA08F7BC43C8
:103D7000334FB84202D1002724E054E0314FB8421B
:103D800001D101271EE0304FB84201D1022719E0CE
:103D90002E4FB84201D1032714E02D4FB84201D174
:103DA00004270FE02B4FB84201D105270AE02A4F24
:103DB000B84201D1062705E0284FB84201D10727B4
:103DC00000E0082707FA08F72743CCF80878DAF864
:103DD00000405746D1F804C09C435FEACC2C00D584
:103DE0001C433C60DBF800405F46D1F804C09C43B4
:103DF0005FEA8C2C00D51C433C60DEF8004077461F
:103E0000D1F804C09C435FEA8C3C00D51C433C6065
:103E1000084F083F3C68D1F804C09C435FEACC3CA3
:103E200000D51C433C60521C102AFFF42FAFBDE8A4
:103E3000F88F0000083C0140443802400030014047
:103E4000000002400004024000080240000C024052
:103E5000001002400014024000180240001C024002
:103E60000069084000D0012070470AB181617047A5
:103E70000904FBE701488068704700007C000020CF
:103E80000248816802781144816070477C000020FC
:103E90000B4810B5016841F400710160016841F4FC
:103EA00080610160016841F480710160032000F0CD
:103EB000AFF80F2000F006F800F050F8002010BD19
:103EC000003C024030B505461F4887B00024016819
:103ED00041F020010160006806A900F02000009078
:103EE00001A800F07BFE0498A8B100F09DFE400000
:103EF0001649174AB0FBF1F11648491E026040F21C
:103F0000E732C0E90324C0E90114846101F047F9F4
:103F1000040003D015E000F087FEE9E70D4801F04A
:103F20006DF904000DD1372000F045F8102D07D2AF
:103F300000222946372000F04BF80748056000E0D2
:103F4000012407B0204630BD4038024040420F00F7
:103F500000140040480E0020800000200C4882B071
:103F6000016841F480410160006800F480400090E5
:103F70000748001F016841F080510160006800227D
:103F800000F0805000900F21901E02B000F020B889
:103F90004438024000280DDB00F01F02012191404F
:103FA0004009800000F1E020C0F88011BFF34F8F7E
:103FB000BFF36F8F7047002809DB00F01F0201215B
:103FC00091404009800000F1E020C0F800117047E6
:103FD000F0B40E4B1B680C46C3F30223C3F1070574
:103FE000042D00D90425191D072901D2002300E062
:103FF000DB1E012606FA05F1491E214099409E402C
:10400000761E16403143F0BC05F08EBE0CED00E08C
:10401000064900F0070208684FF6FF03184040EA1F
:104020000220034A10430860704700000CED00E0D6
:104030000000FA0570470068416200207047F0B543
:104040000368586A39B19C6A4FF4827600EB1444D5
:1040500000204D1E0AE040EA024098620FE006EBA5
:104060008007DF59401C04EB1744C0B2A842F6D3C6
:1040700044EA02404FF4807202EB81015850002064
:10408000F0BDD0F8080504F063BB01EBC10200EB02
:104090008202D0F80805D26C04F0B8BA01EBC10274
:1040A00000EB8202D0F80805D2F88C2204F009BB9C
:1040B000D0F8080504F04EBB0A0601F00F0101EB31
:1040C000C10100EB810101D53C3101E001F51F7117
:1040D000006805F083BA70B504460B0601F00F00C6
:1040E00000EBC00104EB81014FF001024FF000052D
:1040F00003D581F83D203C3103E081F87D5201F584
:104100001F71087094F8BC04012808D084F8BC24FE
:10411000206804F01DFF84F8BC54002070BD02200C
:1041200070BD70B5044601F00F006268904201D97D
:10413000012070BD0B0601F00F0101EBC10104EB82
:1041400081014FF001024FF0000503D581F83D20B9
:104150003C3103E081F87D5201F51F718D700870CC
:1041600094F8BC04012808D084F8BC24206805F029
:10417000EBF884F8BC54002070BD022070BD01F043
:104180000F0101EBC10100EB8100D0F89C027047E8
:104190002DE9F04104460F0601F00F0000EBC001CD
:1041A00004EB81014FF001064FF0000503D581F8C3
:1041B0003D603C3103E081F87D5201F51F710870CC
:1041C000CA600B714A7802B10881022B00D14D718F
:1041D00094F8BC04012809D084F8BC64206804F079
:1041E0000FFE284684F8BC54BDE8F0810220FBE7AE
:1041F00070B50C4601F00F0505EBC50100EB810120
:10420000C1F89432C1F88C220023C1F89C3281F8A5
:104210007D3281F87C52036901F51F71012B00D1B9
:104220004A612207027C006803D005F0E5F800200F
:1042300070BD04F0CFFFFAE770B504460D4601F0FB
:104240000F006168884201D9012070BD29064FF036
:1042500000064FF0010207D500EBC00104EB81011D
:1042600081F83D203C3107E005EBC50104EB8101FD
:1042700081F87D6201F51F718A70087094F8BC04A2
:10428000012807D084F8BC24206805F089F82807A5
:1042900002D007E0022070BD217C04F2C4422068F5
:1042A00005F026F884F8BC64002070BD70B50C469B
:1042B00001F00F0505EBC50100EB81014B65CA64F8
:1042C0000023CB65012381F83D3001F83C5F036991
:1042D000012B00D14A612207027C006803D005F05F
:1042E0008BF8002070BD04F075FFFAE72DE9FC5F44
:1042F00005680446284605F012FA00287DD120689A
:1043000005F039FA002878D0D5F80808C0F30D2058
:10431000C4F8FC04206805F02EFA800704D5206854
:10432000416901F002014161206805F024FAC106EB
:1043300004F2C440009034D52068816921F0100156
:1043400081612F6A07F00F0000EBC00004EB8006CC
:10435000C7F3434006F51F76022802D0062811D085
:104360001AE047F6F070074216D0C7F30A12174654
:104370002846316905F003FA306938443061306A03
:10438000384408E008222846009905F0F8F9306A18
:10439000C7F30A11084430622068816941F01001B6
:1043A0008161206805F0E7F900034FF0080B4FF03A
:1043B000000A4FF001097CD50026206805F0BAF903
:1043C000074674E0F80770D0F1B2206805F0CBF929
:1043D0008046C00707D005EB4611C1F8089B31465F
:1043E000204602F053FB5FEA087024D505EB461126
:1043F000C1F808BB2068016C00E025E200EB461024
:104400000191D0F8082BFC4B994205D9110403D532
:104410004FF40041C0F8081B204600F005FBF649A8
:104420000198884207D92069012804D12068012118
:10443000009A04F05DFF5FEAC86004D505EB461101
:104440001020C1F8080B5FEA88701DD56869000666
:1044500005D5D5F8040840F48061C5F8041806EBCA
:10446000C60004EB800090F87F1200F51F70012950
:1044700005D180F803A0F1B2204600F0EBF905EB7E
:1044800046110220C1F8080B5FEA886004D505EBED
:1044900046102021C0F8081B5FEA884005D505EBCF
:1044A00046104FF40051C0F8081B7F08761C002FFF
:1044B00088D1206805F05FF940036FD5206805F0CA
:1044C00032F90746002667E0F80763D0F1B22068AA
:1044D00005F037F98046C00723D006F00F0209FA2D
:1044E00002F0D5F834288243C5F8342805EB46108D
:1044F000C0F80899206901280FD106EBC60004EB2B
:104500008000D0E912211144C16436B9606D20B930
:1045100020680121009A04F0EBFEF1B22046FFF77B
:10452000B4FD5FEA087003D505EB4611C1F808B980
:104530005FEAC86004D505EB46111020C1F80809F0
:104540005FEA486004D505EB46104021C0F8081921
:104550005FEA887017D53146284605F0B3F806EBB8
:10456000C60004EB800090F83F103C30012905D1D3
:1045700080F803A0F1B2204600F068F905EB46117F
:104580000220C1F808095FEA086003D531462046D9
:1045900002F0E2FA7F08761C002F95D1206805F022
:1045A000EAF8002811DAD5F8040820F00101C5F86E
:1045B000041894F8F40401282BD0204600F018FACF
:1045C0002068416901F000414161206805F0D3F89D
:1045D00000050BD5D5F80808C00702D0204600F02A
:1045E0004BFA2068416901F400614161206805F0DF
:1045F000C2F8C00466D5D5F8040820F00100C5F85B
:1046000004081021206805F05DF800214FF67F3284
:104610001FE084F8F4A400212046FFF70BFDCFE74C
:1046200005EB4110C0F80829D0F8003923F4001335
:10463000C0F80039C0F8082BD0F8003B23F4001371
:10464000C0F8003BD0F8003B43F00063C0F8003BEB
:10465000491C60688842E3D8D5F81C0840F0011175
:10466000C5F81C18206B002828460DD0D0F8840807
:1046700040F00B01C5F88418D5F8440840F00B0150
:104680002846C5F844180DE0D0F8140842F22B0172
:104690000843C5F81408D5F8100840F00B01284667
:1046A000C5F81018D0F8000820F4FE61C5F800180D
:1046B000217C2068009A04F01BFE2068416901F407
:1046C00080514161206805F056F8800415D52068B6
:1046D00004F0D6FB206805F015F8E06000F09EFAC3
:1046E0000146227B206805F0A9F8204600F06AF90F
:1046F0002068416901F400514161206805F03BF8F0
:10470000000707D5204600F077F92068416901F0DD
:1047100008014161206805F02EF8000616D5A86949
:1047200020F08000A86101260DE000BF06EBC60066
:1047300004EB800090F87F02012803D1F1B22046FB
:10474000FFF7BAFC761C6068B042EFD8206805F02D
:1047500012F8C00221D501264F4616E005EB46109F
:10476000D0F8001906EBC60004EB800090F840205A
:10477000012A09D1002907DA80F83F70F0B240F031
:1047800080012046FFF798FC761C6068B042E5D8AF
:104790002068416901F480114161206804F0EBFF59
:1047A000800234D501204B4629E000BF05EB4011C3
:1047B000D1F8001B00EBC00204EB820696F88022C1
:1047C000012A1BD1002919DA94F8FC2401F4803164
:1047D00002F00102914211D186F87F32A96941F0BD
:1047E0008002AA616969090608D4D5F8040840F472
:1047F0000070C5F8040805E00A30544F401C616899
:104800008142D3D82068416901F4001141612068D8
:1048100004F0B1FF400007D52046FFF732FC2068C6
:10482000416901F080414161206804F0A4FF400724
:104830000AD520684568680702D52046FFF738FC8E
:104840002068416829434160BDE8FC9FD0F8080515
:1048500003F0D4BFD0F8080503F0E4BF2DE9F04120
:104860008AB0040005D094F8BD042668002520B164
:1048700008E001200AB0BDE8F08184F8BC5420466D
:1048800000F05EF8032084F8BD04F06BC00500D48E
:104890002561206804F098FC04F110012822884664
:1048A0006846FCF79AF994E80F0004F0F7FA02263C
:1048B000C8BB0021206804F081FF002001270EE022
:1048C00000EBC00104EB810181F83D7001F83C0F61
:1048D00008810D71CD600D61401CC0B28D616168B1
:1048E0008142EDD8002011E000EBC00104EB810112
:1048F00081F87D5281F87C0281F88052C1F888529B
:10490000C1F88C52401CC0B2C1F894526168814217
:10491000EAD8282241466846FCF75FF994E80F0080
:1049200004F098FB10B184F8BD64A2E784F8385015
:1049300084F8BD74206804F07FFB00209AE7000033
:1049400010B586B0044614216846FCF780F920684B
:10495000B0F1A04F2FD119480021026842F00102A6
:104960000260006800F0010005904FF4C050009014
:104970000220CDE90101032003900A20049069463A
:104980000F48FFF775F90D48001D016841F08001DF
:1049900001600A481430016841F4804101600068F8
:1049A000002200F48040059005214320FFF710FB12
:1049B0004320FFF700FB06B010BD00003038024076
:1049C0000000024070B50446C068012570B102289D
:1049D00001D0FEF79CF92946D4F8080503F090FFB2
:1049E000D4F80805BDE8704003F045BF0025F2E7A4
:1049F000D0F8080503F06DBFD0F8080503F073BFC9
:104A000010B5044690F8BC0401280BD0012084F8AE
:104A1000BC0484F83810206804F0FEFE002084F8FE
:104A2000BC0410BD022010BDD0F8082500F2C4411E
:104A3000104603F071BF10B50446006894F8BC142A
:104A4000012906D0012184F8BC14A16A012902D0F1
:104A500008E0022010BDA169012903D0816B41F457
:104A600080318163206804F008FE206804F0D6FAE3
:104A7000002084F8BC0410BD10B50446D0F8080529
:104A800003F08CFF2068D0F8001E41F00101C0F84F
:104A9000001E206A002804D00248016841F0060187
:104AA000016010BD10ED00E02DE9F0470E46050055
:104AB00065D0DFF81481D8F80000F7B200F00700E5
:104AC000B04207D288F80070D8F8000000F0070064
:104AD000B04254D128683D4C810712D5400703D518
:104AE000206840F4E05020602878000703D5206853
:104AF00040F4604020602068A96820F0F00008437E
:104B000020602878C0072DD030496868083901280E
:104B100012D0022813D0032811D009688907002970
:104B20002DDA216821F0030101432160FFF7A2F98A
:104B3000814641F2883A0EE009688903EFE7096887
:104B40008901ECE7FFF796F9A0EB0901514502D97D
:104B50000320BDE8F0872068696800F00C00B0EB26
:104B6000810FEFD1D8F80010404601F00701B142A3
:104B700007D90770006800F00700B04201D001209B
:104B8000E7E72878400705D52068E96820F4E05079
:104B9000084320602878000706D52068296920F49A
:104BA000604040EAC100206000F05EF82168084AD9
:104BB000C1F30311515CC84006490860064800680B
:104BC000FFF780F90020C4E7003C024008380240AB
:104BD000981B020888000020800000200F2202603D
:104BE0000C4A136803F003034360136803F0F003F7
:104BF0008360136803F4E053C36012684FF4E0531A
:104C000003EAD20202610448006800F0070008606D
:104C10007047000008380240003C0240014800682C
:104C200070470000880000200448054900680968B2
:104C3000044AC1F38221515CC840704788000020BB
:104C400008380240A81B02080448054900680968A2
:104C5000044AC1F34231515CC840704788000020CB
:104C600008380240A81B0208154810B5006810F06B
:104C70000C02144813D04110042A0FD0082A0ED178
:104C80000F4C241F2268236802F03F025B0207D505
:104C90002068C0F38810A0FB010106E0084610BDA3
:104CA0002168C1F38811A1FB00010023FBF711FC6F
:104CB0002168C1F30141491C4900B0FBF1F010BD6E
:104CC000083802400024F4002DE9F84F04006ED0AB
:104CD0002078DFF84C93C007A9F104054AD009F108
:104CE00004000168C1F38101012908D00068C0F304
:104CF000810002280AD1D9F80000400206D52868B0
:104D0000800337D560680028E1D033E06068B0F5F3
:104D1000803F10D0B0F5A02F286810D020F480304C
:104D20002860286820F4802028606068A8B1FFF718
:104D3000A1F806460DE0286840F48030F4E740F41E
:104D400080202860F7E700BFFFF794F8801B6428F5
:104D500073D828688003F7D50CE0FFF78BF8064678
:104D600005E000BFFFF786F8801B6428F0D82868AC
:104D70008003F7D42078DFF8AC8280074FF0000A78
:104D80003ED5A748001D016811F00C0F08D000683F
:104D9000C0F3810002280BD1D9F80000400207D4EB
:104DA0002868800716D5E068012800D112E033E1B9
:104DB000E068B8B10120C8F80000FFF75BF80646CC
:104DC00005E000BFFFF756F8801B0228C0D828680E
:104DD0008007F7D52868216920F0F80040EAC10073
:104DE00028600DE0C8F800A0FFF744F8064604E08C
:104DF000FFF740F8801B02281FD828688007F7D4E7
:104E00002078000722D5864F87486169703771B1D5
:104E100001210160FFF72EF8064604E0FFF72AF8AB
:104E2000801B022809D838688007F7D50EE0C0F843
:104E300000A0FFF71FF8064605E082E0FFF71AF82A
:104E4000801B02287DD838688007F7D42078400777
:104E500068D5DFF8CCB100270BF13C0BDBF8000084
:104E6000C0000BD4DBF8001041F08051CBF80010EB
:104E7000DBF80000012700F0805000906B4E306896
:104E8000C00510D4306840F480703060FEF7F2FF47
:104E9000009005E0FEF7EEFF0099401A022850D876
:104EA0003068C005F6D55E4EA0686C3601280FD07C
:104EB0000528306810D020F001003060306820F004
:104EC00004003060A068B8B1FEF7D4FF00900FE096
:104ED000306840F00100F4E740F004003060F7E78C
:104EE000FEF7C8FF0099411A41F28830814266D826
:104EF00030688007F4D50EE0FEF7BCFF009007E0B5
:104F0000FEF7B8FF0099411A41F28830814256D825
:104F100030688007F4D42FB1DBF8001021F0805105
:104F2000CBF80010A069C8B33D49091D0968C1F359
:104F3000810102294AD00228504607D0C8F86000F3
:104F400000E03CE0FEF796FF04463BE04746C8F829
:104F50006000FEF78FFF064605E000BFFEF78AFF00
:104F6000801B02282BD828688001F7D4D4E90701D8
:104F70000843A16A2E4A490802EB0141626A41EAEC
:104F80008211084394F82C1040EA0161C9F800101E
:104F900001203866FEF76EFF044606E03EE000BFE3
:104FA000FEF768FF001B022809D828688001F7D5A2
:104FB00034E000BFFEF75EFF001B022802D9032089
:104FC000BDE8F88F28688001F4D427E00128F7D0E5
:104FD000D9F80000E26900F4800191421CD1226AF4
:104FE00000F03F01914217D147F6C071626A01405B
:104FF000B1EB821F10D1A26A4FF0FF3300F44031B1
:1050000003EB5202B1EB024F06D194F82C1000F0E2
:105010007060B0EB016F01D00120D1E70020CFE735
:105020000438024000004742800E474200700040B2
:105030000000FFFF704700002DE9F04704460079AB
:1050400000278A4601280ED00125257160794FF08E
:105050000009012809D00420A060012784F80490E9
:105060003846BDE8F0870220FBE74FF0020884F8DD
:105070000580FEF7FFFE064611E000BFFEF7FAFED0
:10508000801B02280BD920684068C043C00706D0A7
:105090006571C4F8088084F804900120E1E7206875
:1050A0004068C043C007E9D120688068E060CAF862
:1050B00000006571D2E710B5044600F10C01FFF75E
:1050C000BBFF08B1002010BDE06810BD10B504465C
:1050D00000684168C943890601D4102004E0416892
:1050E000C94349060BD40820A06004206071204603
:1050F000FFF7A0FF21686FF06000486010BD4168B5
:10510000C943C907FAD1016821F00801016020688C
:105110008168E16060790428F0D00120607100208E
:105120002071204600F038F810BD70B5040003D09F
:105130006079002510B105E0012070BD2571204681
:1051400000F00CF8022060712068016841F0040151
:10515000016001206071A560002070BD08B5006885
:105160000B49884212D10B48016841F040010160AF
:105170000068002200F04000009005215020FEF75A
:1051800027FFBDE808405020FEF715BF08BD00000E
:10519000000806503438024070477047704710B519
:1051A000040003D094F83D0010B107E0012010BDC9
:1051B000002084F83C00204600F01EF8022084F80D
:1051C0003D00211D206802F053FB012084F84600B9
:1051D00084F83E0084F83F0084F8400084F84100E1
:1051E00084F8420084F8430084F8440084F84500C1
:1051F00084F83D00002010BD7047000090F83D107D
:10520000012901D001207047022180F83D1001687A
:10521000CA6842F00102CA6000681149884214D08D
:10522000B0F1804F11D00F4988420ED00E4988420C
:105230000BD00E49884208D00D49884205D00D494F
:10524000884202D00C49884204D1816801F00701EC
:10525000062903D0016841F0010101600020704778
:10526000000001400004004000080040000C004025
:10527000000401400040014000180040704770B534
:105280000446006801694FF00005C943890715D439
:10529000C168C943890711D4E91E01610120207743
:1052A000206880698007204602D0FFF7E7FF04E00E
:1052B00000F098F8204600F096F8257720680169FC
:1052C000C943490717D4C168C943490713D46FF0CC
:1052D00004010161022020772068806910F4407F7A
:1052E000204602D0FFF7CAFF04E000F07BF820461A
:1052F00000F079F8257720680169C943090716D4B9
:10530000C168C943090712D46FF008010161042084
:1053100020772068C0698007204602D0FFF7AEFFE3
:1053200004E000F05FF8204600F05DF82577206883
:105330000169C943C90617D4C168C943C90613D452
:105340006FF010010161082020772068C06910F417
:10535000407F204602D0FFF791FF04E000F042F8C2
:10536000204600F040F8257720680169C943C90745
:1053700008D1C168C943C90704D1891E016120460B
:1053800000F032F820680169C943090609D4C168F0
:10539000C943090605D46FF0800101612046FFF77B
:1053A000FCFE20680169C943490609D4C168C943A4
:1053B000490605D46FF040010161204600F01EF857
:1053C00020680169C94389060BD4C168C9438906AD
:1053D00007D46FF0200101612046BDE87040FFF75F
:1053E000DDBE70BD7047704700680349884201D137
:1053F000FEF746BD7047000000140040704770473C
:1054000010B5040014D0242084F83D002068C16841
:1054100021F40051C160204600F074F9002020649E
:1054200084F83D0084F83E0044F8300F207310BD2E
:10543000012010BD70470000F8B5016804460868F7
:10544000CA684B6910F00F0F4FF0000559D003F0F8
:10545000010602F49077374365D0C10705D0D10526
:1054600003D5216C41F001012164410705D5D9071D
:1054700003D0216C41F002012164810705D5D907D1
:1054800003D0216C41F004012164010707D502F02B
:105490002001314303D0216C41F008012164216CCB
:1054A00000293AD0800604D5900602D5204602F0A5
:1054B0004AFB20684069216CC0F38010090700D4C2
:1054C00060B3204602F0E3FA20684069400621D527
:1054D0002068143050E8001F21F0400140E800121D
:1054E000002AF5D1A06BA8B16C490165A06BFEF74D
:1054F00077F8002811D0A06B016D01B0BDE8F04035
:10550000084783060FD593060DD52046BDE8F84021
:1055100002F019BB2046FFF78DFFF8BD2046FFF7CC
:1055200089FF2564F8BD266B2023012E79D1C6069C
:1055300077D5D60675D50868486800904869400652
:1055400040D5A16B086840680004000CEAD0A28D29
:105550008242E7D9E085C869B0F5807F2DD0206808
:105560000C3050E8001F21F4807140E80012002A3E
:10557000F5D12068143050E8001F21F0010140E807
:105580000012002AF5D12068143050E8001F21F0E5
:10559000400140E80012002AF5D184F83E3025632E
:1055A00020680C3050E8001F21F0100140E8001284
:1055B000002AF5D1A06BFDF7CAFFA08DE18D401A3E
:1055C00081B229E0A08DE18D401A81B2E08D0028E2
:1055D000A8D00029A6D020680C3050E8002F22F473
:1055E000907240E80026002EF5D12068143050E873
:1055F000002F22F0010240E80026002EF5D184F8A9
:105600003E30256320680C3050E8002F22F0100255
:1056100040E80023002BF5D12046FFF7F0FEF8BD4F
:10562000FFE705062BD5150629D594F83D0021285E
:10563000F5D1A068B0F5805F01D12069B0B1206AD2
:10564000411C2162216800784860E08C401E000403
:10565000000CE084E3D12068C16821F08001C160C2
:105660002068C16841F04001C160D8E7206A008825
:10567000C0F308004860206A801C2062E5E740060D
:10568000CDD55006CBD5CA68204622F04002CA606C
:1056900084F83D3000F0D2FAC1E700004D790108EE
:1056A00070B5040004D094F83D00002510B106E068
:1056B000012070BD84F83C50204600F091F8242071
:1056C00084F83D002068C16821F40051C160204683
:1056D00002F09AFA2068016921F490410161206882
:1056E000416921F02A0141612068C16841F40051FB
:1056F000C1602564202084F83D0084F83E0000202D
:1057000070BD000010B504462C4B01682C482D4A92
:10571000994213D1016821F480110160811410466F
:10572000FEF7F2F904212848FEF7EEF9A06BFDF729
:1057300069FF606BFDF766FF35203AE0234B994225
:105740000FD1016821F4003101600C212048FEF7DF
:10575000DBF9A06BFDF756FF606BFDF753FF2620CA
:1057600027E01C4B994210D1016821F4802101608F
:105770004FF440611848FEF7C7F9A06BFDF742FFF0
:10578000606BFDF73FFF272013E01448814214D1DE
:105790000B48001D016821F020010160C021104666
:1057A000FEF7B2F9A06BFDF72DFF606BFDF72AFF46
:1057B0004720BDE81040FEF7EDBB10BD0050004093
:1057C0004038024000080240000C02400044004003
:1057D0000000024000480040000402400014014064
:1057E0002DE9F04F87B0054614216846FBF72FFAE4
:1057F000CB48DFF828831038D5F800C0C84B022109
:1058000003228715002406154FF0080E4FF04009BB
:105810004FF0006AC4456AD1D3F800C04CF4801C34
:10582000C3F800C01B6803F480130593036843F0BA
:1058300004030360036803F004030593036843F063
:105840000803036000680DF1040C00F008000590E7
:10585000C802009002209046F3468CE81109694680
:10586000B048FEF705FA042000900DF1040C022068
:105870008CE811096946AC48FEF7FAF9DFF8B08206
:10588000AA494046C8F80010C0E901A4C0E903468F
:10589000C8F81440C0E90647C8F82040C8F82440BA
:1058A000FDF7B2FF08B1FDF732FAA14FC5F8388015
:1058B0006037C8F83850C7F80890C7E903467C61DC
:1058C000BC619A48FC613C62A8307C62C7E9000A6E
:1058D0003846FDF799FF08B1FDF719FA6F6300220A
:1058E00005213520BD63FEF773FB35205AE0DFF854
:1058F00044824FF0070BC44559D1D3F800C04CF493
:10590000003CC3F800C01B6803F400330593036830
:1059100043F001030360006800F0010005900C20D3
:105920008DE81300CDE9032B69468348FEF7A0F903
:10593000DFF8FC817D4908F1C00878314046C8F89D
:105940000010C0E901A4C0E90346C8F81440C0E94A
:105950000647C8F82040C8F82440FDF755FF08B1B5
:10596000FDF7D5F9754FC5F83880C8F83850C7F835
:105970000890C7E903467C61BC616C48FC613C62ED
:1059800090307C62C7E9000A3846FDF73DFF08B158
:10599000FDF7BDF96F63002205212620BD63FEF7E8
:1059A00017FB2620FEF707FB07B0BDE8F08FDFF8F6
:1059B0009081C44557D1D3F800C04CF4802CC3F873
:1059C00000C01B6803F480230593036843F00203BF
:1059D0000360006800F0020005904FF440608DE81D
:1059E0001300CDE9032B69465648FEF741F9DFF86D
:1059F0004C814E4908F1600818314046C8F8001043
:105A0000C0E901A4C0E90346C8F81440C0E906474C
:105A1000C8F82040C8F82440FDF7F6FE08B1FDF7AD
:105A200076F9464FC5F83880C037C8F83850C7F8FF
:105A30000890C7E903467C61BC613C48FC613C625C
:105A400048307C62C7E9000A3846FDF7DDFE08B140
:105A5000FDF75DF96F63002205212720BD63FEF786
:105A6000B7FA27209EE7384B9C459DD12C4B1B1D38
:105A7000D3F800C04CF0200CC3F800C01B6803F042
:105A800020030593036843F004030360006800F0FB
:105A900004000590C0208DE81300CDE9032E69466F
:105AA0002048FEF7E5F8DFF8A880284940464FF087
:105AB000206AC8F80010C0E901A4C0E90346C8F88C
:105AC0001440C0E90647C8F82040C8F82440FDF754
:105AD0009BFE08B1FDF71BF91D4FC5F838806037F4
